{
  "contractName": "Cookbook",
  "abi": [
    {
      "anonymous": false,
      "inputs": [
        {
          "indexed": false,
          "internalType": "uint256",
          "name": "ingredientId",
          "type": "uint256"
        },
        {
          "indexed": false,
          "internalType": "bytes32",
          "name": "name",
          "type": "bytes32"
        },
        {
          "indexed": false,
          "internalType": "uint256",
          "name": "gene",
          "type": "uint256"
        }
      ],
      "name": "IngredientCreated",
      "type": "event"
    },
    {
      "anonymous": false,
      "inputs": [
        {
          "indexed": false,
          "internalType": "address",
          "name": "owner",
          "type": "address"
        },
        {
          "indexed": false,
          "internalType": "uint256",
          "name": "recipeId",
          "type": "uint256"
        },
        {
          "indexed": false,
          "internalType": "bytes32",
          "name": "name",
          "type": "bytes32"
        },
        {
          "indexed": false,
          "internalType": "uint256",
          "name": "gene",
          "type": "uint256"
        }
      ],
      "name": "RecipeCreated",
      "type": "event"
    },
    {
      "anonymous": false,
      "inputs": [
        {
          "indexed": false,
          "internalType": "address",
          "name": "from",
          "type": "address"
        },
        {
          "indexed": false,
          "internalType": "address",
          "name": "to",
          "type": "address"
        },
        {
          "indexed": false,
          "internalType": "uint256",
          "name": "tokenId",
          "type": "uint256"
        }
      ],
      "name": "Transfer",
      "type": "event"
    },
    {
      "inputs": [
        {
          "internalType": "uint256",
          "name": "_gene",
          "type": "uint256"
        },
        {
          "internalType": "bytes32",
          "name": "_name",
          "type": "bytes32"
        }
      ],
      "name": "createIngredient",
      "outputs": [
        {
          "internalType": "uint256",
          "name": "",
          "type": "uint256"
        }
      ],
      "stateMutability": "nonpayable",
      "type": "function"
    },
    {
      "inputs": [
        {
          "internalType": "uint256",
          "name": "_gene",
          "type": "uint256"
        },
        {
          "internalType": "bytes32",
          "name": "_name",
          "type": "bytes32"
        },
        {
          "internalType": "uint256[]",
          "name": "_ingredientsGene",
          "type": "uint256[]"
        },
        {
          "internalType": "uint16[]",
          "name": "_ingredientsQuantity",
          "type": "uint16[]"
        },
        {
          "internalType": "address",
          "name": "_owner",
          "type": "address"
        }
      ],
      "name": "createRecipe",
      "outputs": [
        {
          "internalType": "uint256",
          "name": "",
          "type": "uint256"
        }
      ],
      "stateMutability": "nonpayable",
      "type": "function"
    },
    {
      "inputs": [
        {
          "internalType": "uint256",
          "name": "_id",
          "type": "uint256"
        }
      ],
      "name": "getRecipe",
      "outputs": [
        {
          "internalType": "bytes32",
          "name": "name",
          "type": "bytes32"
        },
        {
          "internalType": "uint256[]",
          "name": "ingredientsGene",
          "type": "uint256[]"
        },
        {
          "internalType": "uint16[]",
          "name": "ingredientQuantity",
          "type": "uint16[]"
        },
        {
          "internalType": "uint256",
          "name": "gene",
          "type": "uint256"
        }
      ],
      "stateMutability": "view",
      "type": "function",
      "constant": true
    },
    {
      "inputs": [
        {
          "internalType": "address",
          "name": "_owner",
          "type": "address"
        }
      ],
      "name": "balanceOf",
      "outputs": [
        {
          "internalType": "uint256",
          "name": "count",
          "type": "uint256"
        }
      ],
      "stateMutability": "view",
      "type": "function",
      "constant": true
    },
    {
      "inputs": [],
      "name": "totalSupply",
      "outputs": [
        {
          "internalType": "uint256",
          "name": "",
          "type": "uint256"
        }
      ],
      "stateMutability": "view",
      "type": "function",
      "constant": true
    },
    {
      "inputs": [
        {
          "internalType": "address",
          "name": "_owner",
          "type": "address"
        }
      ],
      "name": "recipesOfOwner",
      "outputs": [
        {
          "internalType": "uint256[]",
          "name": "ownerRecipes",
          "type": "uint256[]"
        }
      ],
      "stateMutability": "view",
      "type": "function",
      "constant": true
    }
  ],
  "bytecode": "0x608060405234801561001057600080fd5b50611249806100206000396000f3fe608060405234801561001057600080fd5b50600436106100625760003560e01c806318160ddd146100675780631b9b5a991461008557806353a097d8146100b557806370a08231146100e557806394b4dab414610115578063f8d12a4114610145575b600080fd5b61006f610178565b60405161007c9190610919565b60405180910390f35b61009f600480360381019061009a91906109aa565b610190565b6040516100ac9190610919565b60405180910390f35b6100cf60048036038101906100ca9190610a48565b610248565b6040516100dc9190610b33565b60405180910390f35b6100ff60048036038101906100fa9190610a48565b6103cb565b60405161010c9190610919565b60405180910390f35b61012f600480360381019061012a9190610dab565b610414565b60405161013c9190610919565b60405180910390f35b61015f600480360381019061015a9190610e5e565b610567565b60405161016f9493929190610f58565b60405180910390f35b60006001808054905061018b9190610fda565b905090565b6000806040518060400160405280858152602001848152509050600081908060018154018082558091505060019003906000526020600020906002020160009091909190915060008201518160000155602082015181600101555050600060016000805490506102009190610fda565b90507fe4695ef7dd01dbc793c1806facb0264bffebc9e255d60dc165144088fd4570bd8185876040516102359392919061100e565b60405180910390a1809250505092915050565b60606000610255836103cb565b9050600081036102b157600067ffffffffffffffff81111561027a57610279610b6b565b5b6040519080825280602002602001820160405280156102a85781602001602082028036833780820191505090505b509150506103c6565b60008167ffffffffffffffff8111156102cd576102cc610b6b565b5b6040519080825280602002602001820160405280156102fb5781602001602082028036833780820191505090505b5090506000610308610178565b90506000805b8281116103bd578673ffffffffffffffffffffffffffffffffffffffff166002600083815260200190815260200160002060009054906101000a900473ffffffffffffffffffffffffffffffffffffffff1673ffffffffffffffffffffffffffffffffffffffff16036103aa578084838151811061038f5761038e611045565b5b60200260200101818152505081806103a690611074565b9250505b80806103b590611074565b91505061030e565b83955050505050505b919050565b6000600360008373ffffffffffffffffffffffffffffffffffffffff1673ffffffffffffffffffffffffffffffffffffffff168152602001908152602001600020549050919050565b6000825184511461045a576040517f08c379a00000000000000000000000000000000000000000000000000000000081526004016104519061113f565b60405180910390fd5b600060405180608001604052808881526020018781526020018681526020018581525090506001819080600181540180825580915050600190039060005260206000209060040201600090919091909150600082015181600001556020820151816001015560408201518160020190805190602001906104db9291906107ec565b5060608201518160030190805190602001906104f8929190610839565b50505060006001808054905061050e9190610fda565b90507f85ad5338cfbb3469a9f3b4de24bd4b0f9081f42a1b765f9783b20cd3a845f77e84898984604051610545949392919061116e565b60405180910390a16105596000858361067b565b809250505095945050505050565b60006060806000806001868154811061058357610582611045565b5b9060005260206000209060040201905080600101549450806002018054806020026020016040519081016040528092919081815260200182805480156105e857602002820191906000526020600020905b8154815260200190600101908083116105d4575b505050505093508060030180548060200260200160405190810160405280929190818152602001828054801561066557602002820191906000526020600020906000905b82829054906101000a900461ffff1661ffff168152602001906002019060208260010104928301926001038202915080841161062c5790505b5050505050925080600001549150509193509193565b600360008373ffffffffffffffffffffffffffffffffffffffff1673ffffffffffffffffffffffffffffffffffffffff16815260200190815260200160002060008154809291906106cb90611074565b9190505550816002600083815260200190815260200160002060006101000a81548173ffffffffffffffffffffffffffffffffffffffff021916908373ffffffffffffffffffffffffffffffffffffffff160217905550600073ffffffffffffffffffffffffffffffffffffffff168373ffffffffffffffffffffffffffffffffffffffff16146107ac57600360008473ffffffffffffffffffffffffffffffffffffffff1673ffffffffffffffffffffffffffffffffffffffff16815260200190815260200160002060008154809291906107a6906111b3565b91905055505b7fddf252ad1be2c89b69c2b068fc378daa952ba7f163c4a11628f55a4df523b3ef8383836040516107df939291906111dc565b60405180910390a1505050565b828054828255906000526020600020908101928215610828579160200282015b8281111561082757825182559160200191906001019061080c565b5b50905061083591906108e3565b5090565b82805482825590600052602060002090600f016010900481019282156108d25791602002820160005b838211156108a257835183826101000a81548161ffff021916908361ffff1602179055509260200192600201602081600101049283019260010302610862565b80156108d05782816101000a81549061ffff02191690556002016020816001010492830192600103026108a2565b505b5090506108df91906108e3565b5090565b5b808211156108fc5760008160009055506001016108e4565b5090565b6000819050919050565b61091381610900565b82525050565b600060208201905061092e600083018461090a565b92915050565b6000604051905090565b600080fd5b600080fd5b61095181610900565b811461095c57600080fd5b50565b60008135905061096e81610948565b92915050565b6000819050919050565b61098781610974565b811461099257600080fd5b50565b6000813590506109a48161097e565b92915050565b600080604083850312156109c1576109c061093e565b5b60006109cf8582860161095f565b92505060206109e085828601610995565b9150509250929050565b600073ffffffffffffffffffffffffffffffffffffffff82169050919050565b6000610a15826109ea565b9050919050565b610a2581610a0a565b8114610a3057600080fd5b50565b600081359050610a4281610a1c565b92915050565b600060208284031215610a5e57610a5d61093e565b5b6000610a6c84828501610a33565b91505092915050565b600081519050919050565b600082825260208201905092915050565b6000819050602082019050919050565b610aaa81610900565b82525050565b6000610abc8383610aa1565b60208301905092915050565b6000602082019050919050565b6000610ae082610a75565b610aea8185610a80565b9350610af583610a91565b8060005b83811015610b26578151610b0d8882610ab0565b9750610b1883610ac8565b925050600181019050610af9565b5085935050505092915050565b60006020820190508181036000830152610b4d8184610ad5565b905092915050565b600080fd5b6000601f19601f8301169050919050565b7f4e487b7100000000000000000000000000000000000000000000000000000000600052604160045260246000fd5b610ba382610b5a565b810181811067ffffffffffffffff82111715610bc257610bc1610b6b565b5b80604052505050565b6000610bd5610934565b9050610be18282610b9a565b919050565b600067ffffffffffffffff821115610c0157610c00610b6b565b5b602082029050602081019050919050565b600080fd5b6000610c2a610c2584610be6565b610bcb565b90508083825260208201905060208402830185811115610c4d57610c4c610c12565b5b835b81811015610c765780610c62888261095f565b845260208401935050602081019050610c4f565b5050509392505050565b600082601f830112610c9557610c94610b55565b5b8135610ca5848260208601610c17565b91505092915050565b600067ffffffffffffffff821115610cc957610cc8610b6b565b5b602082029050602081019050919050565b600061ffff82169050919050565b610cf181610cda565b8114610cfc57600080fd5b50565b600081359050610d0e81610ce8565b92915050565b6000610d27610d2284610cae565b610bcb565b90508083825260208201905060208402830185811115610d4a57610d49610c12565b5b835b81811015610d735780610d5f8882610cff565b845260208401935050602081019050610d4c565b5050509392505050565b600082601f830112610d9257610d91610b55565b5b8135610da2848260208601610d14565b91505092915050565b600080600080600060a08688031215610dc757610dc661093e565b5b6000610dd58882890161095f565b9550506020610de688828901610995565b945050604086013567ffffffffffffffff811115610e0757610e06610943565b5b610e1388828901610c80565b935050606086013567ffffffffffffffff811115610e3457610e33610943565b5b610e4088828901610d7d565b9250506080610e5188828901610a33565b9150509295509295909350565b600060208284031215610e7457610e7361093e565b5b6000610e828482850161095f565b91505092915050565b610e9481610974565b82525050565b600081519050919050565b600082825260208201905092915050565b6000819050602082019050919050565b610ecf81610cda565b82525050565b6000610ee18383610ec6565b60208301905092915050565b6000602082019050919050565b6000610f0582610e9a565b610f0f8185610ea5565b9350610f1a83610eb6565b8060005b83811015610f4b578151610f328882610ed5565b9750610f3d83610eed565b925050600181019050610f1e565b5085935050505092915050565b6000608082019050610f6d6000830187610e8b565b8181036020830152610f7f8186610ad5565b90508181036040830152610f938185610efa565b9050610fa2606083018461090a565b95945050505050565b7f4e487b7100000000000000000000000000000000000000000000000000000000600052601160045260246000fd5b6000610fe582610900565b9150610ff083610900565b92508282101561100357611002610fab565b5b828203905092915050565b6000606082019050611023600083018661090a565b6110306020830185610e8b565b61103d604083018461090a565b949350505050565b7f4e487b7100000000000000000000000000000000000000000000000000000000600052603260045260246000fd5b600061107f82610900565b91507fffffffffffffffffffffffffffffffffffffffffffffffffffffffffffffffff82036110b1576110b0610fab565b5b600182019050919050565b600082825260208201905092915050565b7f637265617465526563697065206661696c2c20696e6772656469656e7420616e60008201527f64207175616e74697479206c656e6774682061726520646966666572656e7400602082015250565b6000611129603f836110bc565b9150611134826110cd565b604082019050919050565b600060208201905081810360008301526111588161111c565b9050919050565b61116881610a0a565b82525050565b6000608082019050611183600083018761115f565b611190602083018661090a565b61119d6040830185610e8b565b6111aa606083018461090a565b95945050505050565b60006111be82610900565b9150600082036111d1576111d0610fab565b5b600182039050919050565b60006060820190506111f1600083018661115f565b6111fe602083018561115f565b61120b604083018461090a565b94935050505056fea2646970667358221220aff216640c687f34a556882ee45467575eea480aad0efa890a3941d084c69dbf64736f6c634300080d0033",
  "immutableReferences": {},
  "source": "// SPDX-License-Identifier: MIT\npragma solidity >=0.4.22 <0.9.0;\n\ncontract Cookbook {\n    event IngredientCreated(uint256 ingredientId, bytes32 name, uint256 gene);\n    event RecipeCreated(address owner, uint256 recipeId, bytes32 name, uint256 gene);\n    event Transfer(address from, address to, uint256 tokenId);\n\n    struct Ingredient{\n        uint256 gene;\n        bytes32 name;\n    }\n\n    struct Recipe{\n        uint256 gene;\n        bytes32 name;\n        uint256[] ingredientsGene;\n        uint16[] ingredientsQuantity;\n    }\n\n    Ingredient[] ingredientPool;\n    Recipe[] recipes;\n\n    mapping(uint256 => address) recipeIndexToOwner;\n    mapping(address => uint256) ownershipRecipeCount;\n\n    function _assignOwnership(address _from, address _to, uint256 _tokenId) internal {\n        ownershipRecipeCount[_to]++;\n        recipeIndexToOwner[_tokenId] = _to;\n        if(_from != address(0)){\n            ownershipRecipeCount[_from]--;\n        }\n        emit Transfer(_from, _to, _tokenId);\n    }\n\n    function createIngredient(uint256 _gene, bytes32 _name) external returns(uint) {\n        Ingredient memory _ingredient = Ingredient({\n            gene: _gene,\n            name: _name\n        });\n\n        ingredientPool.push(_ingredient);\n\n        uint256 newIngredientId = ingredientPool.length - 1;\n\n        emit IngredientCreated(newIngredientId, _name, _gene);\n\n        return newIngredientId;\n    }\n\n    function createRecipe(uint256 _gene, bytes32 _name, uint256[] memory _ingredientsGene, uint16[] memory _ingredientsQuantity, address _owner) external returns(uint) {\n        require(_ingredientsGene.length == _ingredientsQuantity.length, \"createRecipe fail, ingredient and quantity length are different\");\n        Recipe memory _recipe = Recipe({\n            gene: _gene,\n            name: _name,\n            ingredientsGene: _ingredientsGene,\n            ingredientsQuantity: _ingredientsQuantity\n        });\n        \n        // for(uint i=0; i<_ingredientQuantity.length; i++){\n        //     _recipe.ingredients[i] = _ingredient[i];\n        //     _recipe.ingredientsQuantity[i] = _ingredientQuantity[i];\n        // }\n\n        recipes.push(_recipe);\n\n        uint256 newRecipeId = recipes.length - 1;\n\n        emit RecipeCreated(_owner, _gene, _name, newRecipeId);\n\n        _assignOwnership(address(0), _owner, newRecipeId);\n\n        return newRecipeId;\n    }\n\n    function getRecipe(uint256 _id) external view returns(bytes32 name, uint256[] memory ingredientsGene, uint16[] memory ingredientQuantity, uint256 gene){\n        Recipe storage recipe = recipes[_id];\n        name = bytes32(recipe.name);\n        ingredientsGene = recipe.ingredientsGene;\n        ingredientQuantity = recipe.ingredientsQuantity;\n        gene = uint256(recipe.gene);\n    }\n\n    function balanceOf(address _owner) public view returns(uint256 count){\n        return ownershipRecipeCount[_owner];\n    }\n\n    function totalSupply() public view returns(uint){\n        return recipes.length - 1;\n    }\n\n    function recipesOfOwner(address _owner) external view returns(uint256[] memory ownerRecipes){\n        uint256 recipeCount = balanceOf(_owner);\n\n        if(recipeCount == 0){\n            return new uint256[](0);\n        }\n        else{\n            uint256[] memory result = new uint256[](recipeCount);\n            uint256 totalRecipes = totalSupply();\n            uint256 resultIndex = 0;\n\n            uint256 recipeId;\n            for(recipeId = 0; recipeId <= totalRecipes; recipeId ++){\n                if(recipeIndexToOwner[recipeId] == _owner){\n                    result[resultIndex] = recipeId;\n                    resultIndex ++;\n                }\n            }\n            return result;\n        }\n\n    }\n}\n",
  "sourcePath": "/Users/jyfmidi/Documents/Playground/CookbookDapp/contracts/Cookbook.sol",
  "compiler": {
    "name": "solc",
    "version": "0.8.13+commit.abaa5c0e.Emscripten.clang"
  },
  "schemaVersion": "3.4.7",
  "updatedAt": "2022-04-30T11:25:12.036Z",
  "networkType": "ethereum",
  "devdoc": {
    "kind": "dev",
    "methods": {},
    "version": 1
  },
  "userdoc": {
    "kind": "user",
    "methods": {},
    "version": 1
  }
}